:2000000002E0C80270CD0000000000028171000000000002818C00000000000281A70000CA
:200020000000000281C2909002E054FD909002F0909002E04401909002F0909002E054FE69
:20004000909002F022909002E054F8909002F0740F909001F012002674321281DD90900208
:20006000E04404909002F0740A1281DDD21D22909002E054F8909002F0740C909001F01244
:20008000002674321281DD909002E04404909002F0740A1281DDC21D22909002E054F890FB
:2000A0009002F0A21DB34008740F909001F08006740E909001F012002674321281DD9090E9
:2000C00002E04404909002F0740A1281DD22909002E054F8909002F0A21DB34008740F90A7
:2000E0009001F08006740C909001F012002674321281DD909002E04404909002F0740A122E
:2001000081DD22909002E054F8909002F0740C909001F012002674321281DD909002E044DA
:2001200004909002F0740A1281DDC21E22909002E054F8909002F07408909001F012002694
:2001400074321281DD909002E04404909002F0740A1281DDD21E22A2AF9211E50E6009E5F8
:200160000D1281DD150E80F322753F1875409C12DFC5753F1875409C12DFBB753F1875402D
:200180003C12DFB1753F1875409C12DFBB22900072E53FF0A3E540F0753F1875409C12DFBA
:2001A000C5754100E541D3940F501EE54190193612E0BFE541FEE0FFEE90186C12E0BFEF5F
:2001C000F07841740126F650DB900072E0F53FA3E0F54012DFBB753F1875403C12DFB1756C
:2001E0004100E541D3940F501EE54190183C12E0BFE541FEE0FFEE90193612E0BFEFF07821
:2002000041740126F650DB901931E4F0740F901932F012D6D4750DC8750E3212015775410A
:2002200000E541D3940F501EE54190186C12E0BFE541FEE0FFEE90193612E0BFEFF07841B0
:20024000740126F650DB901931E4F0740F901932F012D6D4750DC8750E0A120157753F181D
:2002600075409C12DFBB227E567F62901A57E075F0A8A4FDACF0EF2DFDEE3CFC901A59E05D
:2002800075F010A4FFAEF0ED2FFFEC3EFE901A5AE075F040A4FDACF0EF2DFDEE3CFC901AB6
:2002A00054ECF0A3EDF0D205753F5F75408412DFBBC205753F1A75406512DFC5D205753FCF
:2002C0005F75409E12DFBBC205753F1A75406112DFC5750A00E50AD394035066D205901A50
:2002E00054E0F53FA3E0F54012DFBBC205753F1A75406512DFD9753F1A75406112DFCF75A0
:200300003F1A75406112DFC5753F1A75405D12DFBB753F1A75406512DFD9753F1A75406592
:2003200012DFC5901A54E0FEA3E0FF74042FFF50010E901A54EEF0A3EFF0780A740126F633
:20034000509322D205753F5F75407A12DFBBC205753F1875407C12DFD912DFC5D205753F04
:200360005F75403412DFBBC205753F1875407C12DFCF12DFC522D205753F5F75403412DF69
:20038000BBC205753F1875407C12DF9D12DFC5D205753F5F75405212DFBBC205753F1875F5
:2003A000407C12DFD912DFC5D205753F5F75403E12DFBBC205753F1875407C12DFED12DFE5
:2003C000C5227480900071F0901A5CE4F0D2057E567FE2901A5AE075F014A4FDACF0EF2DB5
:2003E000FDEE3CFC901A57E075F0A8A4FFAEF0ED2FFFEC3EFE8E3F8F4012DFBBC205753FA5
:200400001A75405D12DFF7900071E0B4010E7480901A5CF0901A59E4F002054DD2057E5664
:200420007FE6901A5AE075F014A4FDACF0EF2DFDEE3CFC901A57E075F0A8A4FFAEF0ED2F33
:20044000FFEC3EFE8E3F8F4012DFBBC205753F1A75405D12DFF7900071E0B40108901A59FD
:20046000E4F002054DD2057E567FEA901A5AE075F014A4FDACF0EF2DFDEE3CFC901A57E086
:2004800075F0A8A4FFAEF0ED2FFFEC3EFE8E3F8F4012DFBBC205753F1A75405D12DFF79064
:2004A0000071E0B40109901A597401F002054DD2057E567FEE901A5AE075F014A4FDACF0BF
:2004C000EF2DFDEE3CFC901A57E075F0A8A4FFAEF0ED2FFFEC3EFE8E3F8F4012DFBBC2055C
:2004E000753F1A75405D12DFF7900071E0B401087402901A59F08055D2057E567FF2901A92
:200500005AE075F014A4FDACF0EF2DFDEE3CFC901A57E075F0A8A4FFAEF0ED2FFFEC3EFE3A
:200520008E3F8F4012DFBBC205753F1A75405D12DFF7900071E0B401087403901A59F0805C
:200540000C74FF901A5CF07403901A59F022901A5AE4F0C205901A57E0B4080512C0E78020
:2005600035901A5A7401F0753F1A75406A12DFBB753F1A75405D12DFC51203C212026775E7
:200580003F1A75406112DFBB753F1A75406E12DFC5901A5AE4F0753F1A75406E12DFBB75AF
:2005A0003F1A75407A12DFCF753F1A75405D12DFC51203C2120267753F1A75406112DFBB7B
:2005C000753F1A75407A12DFC5901A5A7401F022C205753F1A75407212DFBB753F1A7540F2
:2005E0005D12DFC51203C2120267753F1A75406112DFBB753F187540FC12DFC5901A57E0F2
:20060000B4080512C0E7802A753F1A75406A12DFBB753F1A75405D12DFC51203C212026735
:20062000753F1A75406112DFBB753F1A75406E12DFC5753F187540FC12DFBB753F1A7540D7
:200640006E12DF93753F187540FC12DFC5753F187540FC12DFBB753F1A75406112DFC52290
:20066000C2AF850C9074291281DD75906DD2AF22A2AF9211D2AF12DB75A21192AFC20590A4
:2006800000A0E090184CF09000A1E090184DF09000A2E090184EF09000A3E090184FF0907E
:2006A00000A4E0901850F09000A5E0901851F09000A6E0901852F0753F007540A012DFA72F
:2006C000753F1875407C12DFC5D205753F5F75407E12DFBBC205753F1875407C12DFD9759B
:2006E0003F1875407C12DFC522A2AF9211D2AF12DB75A21192AFC2059000A0E090185CF004
:200700009000A1E090185DF09000A2E090185EF09000A3E090185FF09000A4E0901860F0B5
:200720009000A5E0901861F09000A6E0901862F0753F007540A012DFA7753F1875408412E3
:20074000DFC5D205753F5F75407E12DFBBC205753F1875408412DFD9753F1875408412DFA0
:20076000C52274009018ACF074009018ADF074009018AEF074009018AFF09000717401F046
:20078000900070E4F0900071E07009900070E0C3940A5031120670C205753F1875407C120B
:2007A000DFBB753F187540AC12DFF7753F1875407C12DFBB753F187540AC12DFC5900070FE
:2007C000E004F080C022C205901A32E0F8A3E0900072C8F0A3C8F012E00B753F1875409CB6
:2007E00012DFD9D205753F5F75400612DFE3C205753F1875409412DFC5D205753F5F754085
:200800009E12DFF7900071E0B4FF0EC205753F1875409412DFBB12DF89C20512E01F900046
:2008200070E0F8A3E0901A34C8F0A3C8F022A21650030208E6901A27E0701FD205753F5FB5
:2008400075407612DFBBC205753F1875409C12DFCF753F187540A412DFC5901A27E0B401DC
:200860003ED205753F5F7540A412DFBBC205753F1875409C12DFD9753F187540A412DFC5C2
:20088000D205753F5F75407612DFBBC205753F187540A412DFCF753F187540A412DFC5D23E
:2008A00005753F5F75408A12DFBBC205753F187540A412DFD9753F1875409C12DFD9753FE4
:2008C0001875409C12DFC5C205901A36E0F8A3E0900072C8F0A3C8F012E00B753F18754064
:2008E0009C12DFD9801DC205901A36E0F8A3E0900072C8F0A3C8F012E00B753F1875409CC4
:2009000012DFD9D205753F5F75402A12DFE3C205753F1875409412DFC5D205753F5F75403F
:200920009E12DFF7900071E0B4FF0EC205753F1875409412DFBB12DF89C20512E01F900025
:2009400070E0F8A3E0901A38C8F0A3C8F022A2AF9211C2AF901A27E07005750CFA800375B7
:200960000CF6850C90754201754100AE41AF42901A34E0FCA3E0FDEDC39FEC9E401374012B
:200980001281DD7842740126F6500418E436F650DA759065A21192AF22A2AF9211C2AF9081
:2009A0001A27E07005750CEA8003750CE6850C90754201754100AE41AF42901A38E0FCA37C
:2009C000E0FDEDC39FEC9E401374011281DD7842740126F6500418E436F650DA759065A22C
:2009E0001192AF22909000E0901A44F074641281DD908002E0901A4FF074641281DD901A90
:200A000044E05440B44019901A4FE05480B48008753F197540208006753F1975401C8006DC
:200A2000753F19754018C20512DFBB753F1875407C12DF9D753F1875407C12DFC522C20582
:200A400022901806E4F0C21AD216201603020CA2750DFA750E0A1201571206703012030203
:200A60000C9D1209E4901811E0B4062CD205753F5F754076901812E0B40106753F5F75401D
:200A80004A12DFBBC205753F1875407C12DF9D753F1875407C12DFC5901811E070089018A2
:200AA00013E064016002801FD205753F5F75407612DFBBC205753F1875407C12DF9D753F16
:200AC0001875407C12DFC5901812E0B40179901A57E0B40553D205753F5E7540FE12DFBB1A
:200AE000C205753F1875407C12DFF7900071E064016014740E908003F01206701209E47410
:200B00000F908003F0801FD205753F5F75407212DFBBC205753F1875407C12DFED753F18F9
:200B200075407C12DFC5801FD205753F5F75407212DFBBC205753F1875407C12DFED753F1C
:200B40001875407C12DFC5C205753F187540FC12DFBB753F1875407C12DF93753F187540A4
:200B60009C12DFC5D205753F5F75409E12DFBBC205753F1875409C12DFF7900071E0B401D8
:200B800006901A277401F0900071E064FF6006900071E07005901A27E4F0D205753F5F7515
:200BA000403812DFBBC205753F1875409C12DFF7900071E0B4FF07901A27E4F08027D20587
:200BC000753F5F7540AA12DFBBC205753F1875409C12DFF7900071E0B40108901A27740147
:200BE000F08002C216901806E0D394024049D205753F5F75401C12DFBBC205753F1875407C
:200C00009C12DFF7900071E0B4FF06D21AC2168024D205753F5F7540B612DFBBC205753FD2
:200C20001875409C12DFF7900071E064FF6006D21AC21680008051D205753F5F75402A12C9
:200C4000DFBBC205753F1875409C12DFF7900071E0B4FF081207C612094E802CD205753F13
:200C60005F7540B012DFBBC205753F1875409C12DFF7900071E064FF60081207C612094E44
:200C8000800612082E120999901806E004F0901806E0D394084004D21AC2168002C21602EF
:200CA0000A4A22901806E4F0D216201603020DEA750DFA750E0A12015712067030120302E0
:200CC0000DE51209E4120A3E901812E0B4011FD205753F5F75407212DFBBC205753F187596
:200CE000407C12DFED753F1875407C12DFC5C205753F187540FC12DFBB753F1875407C12A8
:200D0000DF93753F1875409C12DFC5D205753F5F75409E12DFBBC205753F1875409C12DFD0
:200D2000F7900071E0B40106901A277401F0900071E064FF6006900071E07005901A27E435
:200D4000F0D205753F5F75403812DFBBC205753F1875409C12DFF7900071E0B4FF07901A0F
:200D600027E4F08027D205753F5F7540AA12DFBBC205753F1875409C12DFF7900071E0B47B
:200D80000108901A277401F08002C216D205753F5F75402A12DFBBC205753F1875409C124F
:200DA000DFF7900071E0B4FF081207C612094E802CD205753F5F7540B012DFBBC205753F57
:200DC0001875409C12DFF7900071E064FF60081207C612094E800612082E1209999018069E
:200DE000E004F08002C216020CAA22909000E0901A46F074BE909000F0C205753F18754081
:200E0000FC12DFBB753F1975400012DFC5D205753F5F75409E12DFBBC205753F187540FCC5
:200E200012DFC5120A41C205753F1975400012DFBB753F187540FC12DFC5901A46E0909087
:200E400000F022909002E0901A2DF0901A2DE0C4540F901A2DF0901A2DE0C39410400302AF
:200E60000EE7901A2DE0902057F828287380767406901A2DF0806E7403901A2DF080667447
:200E80000F901A2DF0805E7402901A2DF080567408901A2DF0804E7405901A2DF080467400
:200EA0000F901A2DF0803E901A2D7401F080367407901A2DF0802E7404901A2DF080267463
:200EC0000F901A2DF0801E740F901A2DF08016740F901A2DF0800E740F901A2DF0800674A2
:200EE0000F901A2DF08006740F901A2DF022120E43901A2EE0FE901A2DE06E6011901A2DA4
:200F0000E0901A2EF0D212901817E4F08002C2122274FF901A2FF0901A2FE0B4FF05A212D9
:200F2000B34002800512812280ED22901A2FE064FF6005A212B34002800512812280EC2201
:200F4000901931E4F07420901932F012D697901931E4F07420901932F012D6D42290193140
:200F6000E4F07410901932F012D697901931E4F07410901932F012D6D4227410901931F0A6
:200F80007410901932F012D6977410901931F07410901932F012D6D4227410901931F07446
:200FA00010901932F012D6977410901931F07410901932F012D6D422120F40901929E4F055
:200FC00074FF901A2FF0901A2FE0C394014009901A2FE0D394024005A212B34002806390F8
:200FE000192DE0FEA3E0FF901929E075F010A4FDACF0EF2DFDEE3CFC90192BECF0A3EDF078
:20100000120F7A750DFA750E14120157120F11901A2FE0C394035028901A2FE0902087F813
:20102000282873901929E004F0901929E0FE901928E014C39E5005901929E4F08002800074
:20104000808422743090181CF0742C90181DF07402901806F0901806E0D3940F5016901897
:2010600006E090181C12E0BF7430F0901806E02401F050E1120F2B9018067401F0901806A0
:20108000E0FE901808E004C39E50030212A3120F11A212B3400122901806E0FE901808E05B
:2010A00004D39E50030211CA901A2FE0D3942C4009901A2FE0C3943A40028051901806E00B
:2010C0001490181C12E0BFA883A982901A2FE088838982F0901807E0FE901806E02E149085
:2010E000193612E0BFA883A982901A2FE088838982F0901807E0FE901806E02E14901931A4
:20110000F09019327401F012D6D4120F2B901A2FE0B40243901806E0B4010122901806E0F1
:2011200014F0901807E0FE901806E02E1490193612E0BF7420F0901807E0FE901806E02EF1
:2011400014901931F09019327401F012D6D4901806E014F0120F2B901A2FE0B401189018A9
:2011600006E01490181C12E0BF742CF0901808E02402901806F0901A2FE07018901806E04D
:201180001490181C12E0BF742CF0901808E02402901806F0901A2FE0B40318901806E014B8
:2011A00090181C12E0BF742CF0901808E02402901806F0750A01E50AD3940A500D74FA1219
:2011C00081DD780A740126F650EC901806E0FE901808E004B506028003021297901A2FE09E
:2011E000B4010E901806E01490181C12E0BF742CF0901A2FE0700E901806E01490181C12D6
:20120000E0BF742CF0901A2FE0B4030E901806E01490181C12E0BF742CF0901A2FE0B4020B
:2012200050901806E014F0901807E0FE901806E02E1490193612E0BF7420F0901807E0FECE
:20124000901806E02E90193412E0BF7420F0901807E0FE901806E02EC39402901931F074E0
:2012600002901932F012D6D4901806E014F0120F2B901A2FE0D394034006901806E014F00C
:20128000750A01E50AD3940A500D74FA1281DD780A740126F650EC901806E02401F04003FE
:2012A00002107D22C215C21BC21CD205901800E0F53FA3E0F54012DFBBC205754100E54151
:2012C000D39403501EE5419018FC12E0BFE541FEE0FFEE90190412E0BFEFF0784174012639
:2012E000F650DB901FF2E0B44608901812E0640160028015753F1875407C12DFC512034349
:20130000753F1875407C12DFBB753F1875408C12DFC5D205901802E0F53FA3E0F54012DF23
:20132000BBC205901FF2E0B44608901812E0640160028015753F1875407C12DFC5120343A7
:20134000753F1875407C12DFBB753F1875409412DFC5C205753F1875401C12DFA7C20575E1
:201360003F187540FC12DFC5753F187540FC12DFBB753F1875408C12DFF7900071E064014B
:201380006004D215D21BC205753F1875409412DFBB753F187540FC12DFF7900071E06401E2
:2013A0006004D215D21C901FF2E0B44608901812E0640160028027753F187540FC12DFBB40
:2013C000753F1875407C12DFC5120376753F1875407C12DFBB753F187540FC12DFC5E50FFF
:2013E00064016005E50FB40228754100E541D39403501EE54190190412E0BFE541FEE0FF16
:20140000EE9018FC12E0BFEFF07841740126F650DB754100E541D394035013E541901904B9
:2014200012E0BF7400F07841740126F650E622301305D212021741A212B3500302156390AB
:201440001A3AE0F8A3E0901A3CC8F0A3C8F0901809E090180BF090180AE090180CF0901AD0
:201460002FE0901A31F0754100E541D39420501EE54190193612E0BFE541FEE0FFEE901971
:20148000A612E0BFEFF07841740126F650DB7E607FA0901FF0E0FCA3E0FDEF2DFDEE3CFC6A
:2014A00090192BECF0A3EDF0120F401291E012A0F0901811E064066007901811E0B408298E
:2014C000901812E0B40106901A56E06002801AC205753F1A75407E12DFBB753F1A75406A7A
:2014E00012DFC5901A697401F012958AC212120EEE301204D213803F754100E541D394205E
:20150000501EE5419019A612E0BFE541FEE0FFEE90193612E0BFEFF07841740126F650DB62
:20152000901931E4F07420901932F012D6D4750DFA750E0A120157D2A8901A3CE0F8A3E0B4
:20154000901A3AC8F0A3C8F090180BE0901809F090180CE090180AF0901A31E0901A2FF0A6
:2015600002174190180412D7D6901804E0FEA3E0FFEFD39490EE94015003021741120099D9
:20158000750DFA750E05120157901A3AE0F8A3E0901A3CC8F0A3C8F0901809E090180BF071
:2015A00090180AE090180CF0901A2FE0901A31F012958A901811E0D39408400674009018D6
:2015C00011F0901811E0902090F8282873901813E0D3940140067400901813F0901813E073
:2015E0009020DBF82828731293FE8000021710021710901813E0D3940140067400901813B8
:20160000F0901813E09020E1F82828731293FE8003129347021710901813E0D3940140066F
:201620007400901813F0901813E09020E7F82828731293FE80000217100217100217109070
:201640001812E0D3940140067400901812F0901812E09020EDF82828731293FE80261294D3
:20166000B5901A56E0701D12A0F0C205753F1A75407E12DFBB753F1A75406A12DFC5901AE5
:20168000697401F0021710901812E0D3940140067400901812F0901812E09020F3F8282868
:2016A00073901813E0B4010512934780031293FE80031293FE8059901812E0D39401400609
:2016C0007400901812F0901812E09020F9F8282873901813E064036007901813E0B4010530
:2016E00012934780031293FE80261294B5901A56E0701D12A0F0C205753F1A75407E12DF0F
:20170000BB753F1A75406A12DFC5901A697401F0901A3CE0F8A3E0901A3AC8F0A3C8F0902B
:20172000180BE0901809F090180CE090180AF0901A31E0901A2FF01200CE901804E4F0A348
:20174000F022901A88E004900072F8E4F0E8A3F0901809E090180BF090180AE090180CF0AE
:201760007405901809F090180AE4F012E00B753F1875401C12DFB112971575410090180968
:20178000E0C39402C39541401FE5410490185C12E0BFE541FEE0FFEE90194612E0BFEFF0C9
:2017A0007841740126F650D57473901949F07410901931F07404901932F012D6D490180BF1
:2017C000E0901809F090180CE090180AF022A2AF9211C2AFD212C2A8A21192AF2222E5411F
:2017E000703B750901E509D394C8500E908000E0F50A7809740126F650EB750901E509D3C8
:2018000094C8500E908000E0F50A7809740126F650EB750900750A007541018014E541C3A1
:201820009406500DE541142443F8908000E0F6054122222275A80074FA1281DD75B80075E9
:201840008901758800759800758150752000C20FC20EC20DC209C208C21D90180D7423F0F9
:20186000A37423F090180F7420F0A37420F0750F00901804E4F0A3F0901933E4F0901817D6
:20188000E4F0901A69E4F0901819E4F07508007590657488909003F074B2908003F074B7AE
:2018A000909000F07408909002F07408908003F0909002E054F8909002F0743C909001F0EA
:2018C00012002674321281DD12002674051281DD12002674051281DD7406909001F01200DB
:2018E0002674051281DD9090017401F0120026743C1281DD740C909001F0120026740512A7
:2019000081DD909002E054F8909002F0740A1281DD909002E04404909002F0740A1281DDD1
:20192000754100E541D3943F504F909002E054F8909002F074402541909001F0909002E0F9
:201940004401909002F0909002E054FE909002F0740A1281DD909002E04404909002F0E59B
:2019600041905FBA93909001F0120026740A1281DD7841740126F650AA754100E541D3942C
:201980001F5013E54190193612E0BF74FFF07841740126F650E6901931E4F074209019320F
:2019A000F012D6D4750DFA750E46120157901FF0E0FEA3E0FFEF4E6012EF64007005EE6404
:2019C000116008EFB40015EEB42211901FF0E0F8A3E0901FF0C8F0A3C8F08007901FF0E44B
:2019E000F0A3F0901FF2E064436007901FF2E0B4460A901FF2E0901FF2F080067443901F52
:201A0000F2F01298ED1298ED901A2FE0B4EE07901FF0E4F0A3F0901A2FE0B47E0A901FF0BA
:201A20007411F0A37400F0901A2FE0B4DE0A901FF07422F0A37400F0901A2FE0B4FA24908E
:201A40001FF2E0B443087446901FF2F08015901FF2E0B446087443901FF2F080067443901E
:201A60001FF2F0901A2FE0B4FC03129D62901A2FE0B4F800901A2FE0B45708901818740182
:201A8000F08005901818E4F0901A2FE0B4FE129018177401F09018047401F0A37486F0807E
:201AA00005901817E4F0D205753FF075400C12DFBBC205753F1075400012DFF7900071E09D
:201AC000B401089018197401F0802AD205753FF075401412DFBBC205753F1075400012DF58
:201AE000F7900071E0B4FF089018197401F08005901819E4F0901819E0B4013F7542007552
:201B00004100AE41AF4274FFC39F740F9E401790000012D7EF7400F07842740126F65004EC
:201B200018E436F650DC754200754100129D62901817E4F0901804E4F0A3F074FF901A2FE1
:201B4000F07E607F00901FF0E0FCA3E0FDEF2DFDEE3CFC90192BECF0A3EDF0120F40750DEB
:201B6000FA750E0A120157C21274BF909000F0D2AF12DB75C2AFC205753F007540A012DF48
:201B8000A712E01F900070E0FEA3E0FF7464BE00039F5009EFC394FFEE947F400280087517
:201BA0000CF612066080C8900070E0FEA3E0FFEFD394E0EE94B14009EFC3949CEE94FF40AE
:201BC000028008750CFA12066080A4120DEB901817E06003021FC4754100E541D3940350DD
:201BE00055E5419018FC12E0BF7400F0E54190190012E0BF7400F0E54190190412E0BF74D5
:201C000000F0E54190191812E0BF7400F0E54190191C12E0BF7400F0E54190192012E0BF38
:201C20007400F0E54190192412E0BF7400F07841740126F650A41293477E607F20901FF0F2
:201C4000E0FCA3E0FDEF2DFDEE3CFC90192BECF0A3EDF0120F40750DFA750E0A12015712D3
:201C600093FE7E607F40901FF0E0FCA3E0FDEF2DFDEE3CFC90192BECF0A3EDF0120F4075F6
:201C80000DFA750E0A1201571294B57E607F60901FF0E0FCA3E0FDEF2DFDEE3CFC90192B20
:201CA000ECF0A3EDF0120F99750DFA750E0A12015712958A7E607F70901FF0E0FCA3E0FDA2
:201CC000EF2DFDEE3CFC90192BECF0A3EDF0120F99750DFA750E0A12015712A0F07E607F69
:201CE00090901FF0E0FCA3E0FDEF2DFDEE3CFC90192BECF0A3EDF0120F99750DFA750E141D
:201D00001201577405901809F090180A7401F074DF901954F0901FF2E0901955F0741E9057
:201D20001931F07402901932F012D6D4753F1A75407E12DFBB901FF2E0B44615753F1875EE
:201D4000407C12DFC5120343753F1875407C12DFBB753F1875401C12DFB11297157541005D
:201D6000901809E014C39541401EE54190185C12E0BFE541FEE0FFEE90194C12E0BFEFF076
:201D80007841740126F650D87416901931F0901809E0901932F012D6D4750DFA750E3C1218
:201DA00001577E607F80901FF0E0FCA3E0FDEF2DFDEE3CFC90192BECF0A3EDF0120F997555
:201DC0000DFA750E141201577407901809F0740290180AF0753F1975402412DFBB753F18A9
:201DE00075401C12DFB1129715754100901809E014C39541401EE54190185C12E0BFE5415F
:201E0000FEE0FFEE90194C12E0BFEFF07841740126F650D87416901931F0901809E0901972
:201E200032F012D6D4750DFA750E3C12015774BE909000F0750DFA750E04120157120670E8
:201E4000905EF2E493F8740193901A34C8F0A3C8F0901A27E4F012016912094E750DFA75BF
:201E60000E0A1201571206E9120169753F1875408412DFBB753F1875407C12DF93120169B5
:201E8000753F1875408C12DFC5120169905EF2E493F8740193900072C8F0A3C8F012E00B9A
:201EA000120169D205753F5F75400612DFD9120169C205753F1875408C12DFE31201691285
:201EC000E01F900070E0F8A3E0901A32C8F0A3C8F0120169C205901A277401F0901A32E084
:201EE000F8A3E0901A34C8F0A3C8F012094E750DFA750E0412015712016974BE909000F0E2
:201F0000750DFA750E0A120157120670905EF4E493F8740193901A38C8F0A3C8F0901A27A7
:201F2000E4F0120169120999750DFA750E0F1201571206E9120169753F1875408412DFBBF7
:201F4000753F1875407C12DF93120169753F1875408C12DFC5120169905EF4E493F874017F
:201F600093900072C8F0A3C8F012E00B120169D205753F5F75402A12DFD9120169C20575F5
:201F80003F1875408C12DFE312016912E01F900070E0F8A3E0901A36C8F0A3C8F01201697E
:201FA000901A277401F0901A36E0F8A3E0901A38C8F0A3C8F0120999750DFA750E041201F1
:201FC00057120169C205901817E07006740F901A2DF0120EEE750800D2AFD2A8901A30E4C4
:201FE000F0E508706CC212120DEB901A2DE09020ABF82828737400901811F0124BD5804F5F
:20200000126FE0804A12D80080457403901811F0124BD5803A126FE08035126FE0803012A1
:2020200029A5802B12CEBA802612C4F9802175080F801C75080F801775080F801275080F82
:20204000800D75080F800875080F800375080F809012DDDB021834020E6D020E6F020E7799
:20206000020E7F020E87020E8F020E97020E9F020EA7020EAF020EB7020EBF020EC7020E52
:20208000CF020ED7020EDF02102302103E0210400215CD0215EF0215F2021617021639024F
:2020A000163C02163F0216870216B7021FF502200002200502200A02201502201A02201FCA
:2020C00002202402202902202E02203302203802203D02204202204702204C0215E70215C1
:2020E000EC02160C02161102163102163602165902165E0216A10216B20216D10216EA902B
:20210000192BE0F8A3E090192FC8F0A3C8F07E627F20901FF0E0FCA3E0FDEF2DFDEE3CFC7C
:2021200090192BECF0A3EDF07420901931F07420901932F012D69790192FE0F8A3E0901957
:202140002BC8F0A3C8F0901944E0901964F0901945E0901965F0901944E0901974F0901928
:2021600045E0901975F0120A41301A67D205753F5F75409E12DFBBC205753F1875407C125F
:20218000DFC5D205901A3AE0F53FA3E0F54012DFBBC205753F1875407C12DFED753F187585
:2021A000401C12DFB1129715754100901809E014C39541401EE54190185C12E0BFE541FE12
:2021C000E0FFEE90196A12E0BFEFF07841740126F650D8C205753F1A75407212DFBB901F06
:2021E000F2E0B44615753F1875407C12DFC5120343753F1875407C12DFBB753F1875401CAD
:2022000012DFB1129715754100901809E014C39541401EE54190185C12E0BFE541FEE0FF2E
:20222000EE90194A12E0BFEFF07841740126F650D8754100901809E014C39541401EE54143
:2022400090185C12E0BFE541FEE0FFEE90195A12E0BFEFF07841740126F650D8753F1A7590
:20226000406A12DFBB901FF2E0B44615753F1875407C12DFC5120343753F1875407C12DF7F
:20228000BB753F1875401C12DFB1129715754102901809E014C39541401EE54190185C12F6
:2022A000E0BFE541FEE0FFEE90193D12E0BFEFF07841740126F650D822301A1474209019E9
:2022C00031F07420901932F012D6D4120DEB800E901931E4F07420901932F012D6D412143B
:2022E0002F12812222901A8CE0B40102800302238B901A8CE4F0901A8EE06007901A8DE038
:20230000B4010C7438901A2FF0901A8D7401F0901A8EE0FE901A86E06E6006901A8DE0706A
:202320004CC205901A86E0900072F8E4F0E8A3F012E00B753F187540BC12DFC5D205753FB6
:202340005F75409812DFBBC205753F187540BC12DFCF753F1A75408212DFF7900071E0B4DF
:20236000010B7430901A2FF0901A8DE4F0901A8EE0FE901A86E0C39E4006901A8DE0700B7A
:202380007430901A2FF0901A8DE4F0901A2FE0B43802800302246DC205901A8EE004F090A5
:2023A0001A8D7401F0901A8EE0FE901A86E0D39E4023C205753F1075407812DFBB753F1AE5
:2023C00075407212DFCF753F1A75407212DFC51205D0123FED901A8EE0FE901A86E0B50665
:2023E00035C205753F1075407812DFBB753F1A75407212DFCF753F1A75407212DFC5753F30
:202400001A75407212DFBB753F187540D412DFC51205D0123FED901A8EE0FE901A86E0C3B6
:202420009E5044901A86E004901A8EF0C2057E107F2C901A8FE0FCA3E0FDEF2DFDEE3CFC5A
:20244000901A94E075F008A4FFAEF0ED2FFFEC3EFE8E3F8F4012DFBB753F1A75407212DF3F
:20246000C51205D0123FED74FF901A2FF0901A2FE0B430028003022533C205901A8EE014C7
:20248000F0901A8DE4F0901A8EE0FE901A86E0D39E4023C205753F1075407812DFBB753F2F
:2024A0001A75407212DF9D753F1A75407212DFC51205D0123FED901A8EE0FE901A86E0B5A2
:2024C0000618753F187540D412DFBB753F1A75407212DFC51205D0123FED901A8EE0703B4A
:2024E000C2057E107F28901A8FE0FCA3E0FDEF2DFDEE3CFC901A94E075F008A4FFAEF0ED53
:202500002FFFEC3EFE8E3F8F4012DFBB753F1A75407212DFC51205D0123FED901A8EE0FE37
:20252000901A86E0C39E5005901A8EE4F074FF901A2FF0901A8BE0B40168901A88E0700ECB
:20254000901A87E0901A88F0901A8C7401F0901A88E0B40117128122901A2FE0B402059016
:202560001A8BE4F0901A89E4F0A304F0901A89E0FEA3E0FF7402BE00039F500B7402901A60
:2025800089F8E4F0E8A3F0901A891281ED901A89E0FEA3E0FFEF4E7009901A88E014F01247
:2025A0001742901A2FE07006901A8BE06002800912B40C74FF901A2FF0901A2FE064026006
:2025C0000874FF901A2FF08002C217227406901808F07408901807F090180074F0F0A374F2
:2025E0000CF090180274F0F0A37414F0D215A212B3821550657E637F80901FF0E0FCA3E04E
:20260000FDEF2DFDEE3CFC901933E02DFD50010C90192BECF0A3EDF0120F40750DFA750EAB
:202620000A120157743F90193EF07408901931F09019327401F012D6D4750DFA750E0A123F
:202640000157120F2B1210431212A4901A2FE064016002C21512142F80942274069018089D
:20266000F07408901807F090180074F0F0A3741CF090180274F0F0A37424F0D215A212B3B9
:202680008215400302278A7E637FE0901FF0E0FCA3E0FDEF2DFDEE3CFC901933E02DFD50FD
:2026A000010C90192BECF0A3EDF0120F40750DFA750E0A120157743F90193EF0740890195A
:2026C00031F09019327401F012D6D4750DFA750E0A120157120F2B121043901806E4F090A7
:2026E0001806E0FE901808E0C39E5003022777901806E090181C12E0BFE0B42E6E90180619
:20270000E090182212E0BF7431F0901806E090182312E0BF742CF0901806E0F541901808BB
:20272000E0C395414045E54190181C12E0BFE0B42C31854141901806E02405C39541401365
:20274000E54190181C12E0BF7430F07841740126F650E2901808E004F541901808E00490E0
:202760001806F07841740126F650B2901806E02401F040030226DF1212A4901A2FE064012C
:202780006002C21512142F02267D227406901808F07408901807F090180074F0F0A3742C70
:2027A000F090180274F0F0A37434F0D215A212B3821550657E647F40901FF0E0FCA3E0FDBA
:2027C000EF2DFDEE3CFC901933E02DFD50010C90192BECF0A3EDF0120F40750DFA750E0ADD
:2027E000120157743F90193EF07408901931F09019327401F012D6D4750DFA750E0A120187
:2028000057120F2B1210431212A4901A2FE064016002C21512142F809422901A2FE4F090C9
:202820001929E4F0C217901A2FE0D394025009901A2FE0C394015005A212B340030229A44F
:202840007404901928F07E6F7F20901FF0E0FCA3E0FDEF2DFDEE3CFC90192DECF0A3EDF047
:20286000901812E0B40105129F398003129DC1901929E0901A94F0901A2FE0B40202800353
:2028800002299474F0901A2FF0901A2FE06402700302299490180F743FF0A37400F0742006
:2028A000901933F0901812E0B4010512A1968022901A8FE0FEA3E0FF740712D7C8EF903E8B
:2028C000F7F82828731225CC800812265B800312278B90180F7420F0A37420F0753F18753E
:2028E00040FC12DFBB7E107F28901A8FE0FCA3E0FDEF2DFDEE3CFC901A94E075F008A4FFB9
:20290000AEF0ED2FFFEC3EFE8E3F8F4012DFC590180F743FF0A37400F07440901933F09013
:202920001812E0B4010512A1968022901A8FE0FEA3E0FF740712D7C8EF903F00F8282873AA
:202940001225CC800812265B800312278B90180F7420F0A37420F0753F187540FC12DFBB87
:202960007E107F2C901A8FE0FCA3E0FDEF2DFDEE3CFC901A94E075F008A4FFAEF0ED2FFF63
:20298000EC3EFE8E3F8F4012DFC5901A2FE4F0901933E4F0901A2FE0B401031245A91214C9
:2029A0002F0228262275B8E175A881901817E0701E7406901811F07400901812F074009058
:2029C0001813F07403901814F07404901815F0C217C212C213901A2DE0901A2EF07430905F
:2029E0001A93F0901A30E4F07E687FD0901FF0E0FCA3E0FDEF2DFDEE3CFC90192BECF0A3CA
:202A0000EDF0120F40301203023EF6120DEB9018167401F07402901928F07E687FD0901FB5
:202A2000F0E0FCA3E0FDEF2DFDEE3CFC90192BECF0A3EDF07E687FF0901FF0E0FAA3E0FB8F
:202A4000EF2BFBEE3AFA90192DEAF0A3EBF0901817E0B4012E901815E0640460169018125A
:202A6000E0901929F0901A2F7401F07400901815F0800E901817E4F0120FB874009018152A
:202A8000F08003120FB8901A2FE0B40105A212B34003023EF0901929E0903F09F828287358
:202AA000901A2FE064026005A212B34003023708901817E070067400901812F07402901856
:202AC00016F0901929E4F07403901928F0120DEB7E697F10901FF0E0FCA3E0FDEF2DFDEE90
:202AE0003CFC90192BECF0A3EDF0120F40120F2B7E697F90901FF0E0FCA3E0FDEF2DFDEEC9
:202B00003CFC90192DECF0A3EDF0901817E0B40110901813E0901929F0901A2F7401F080CC
:202B200003120FB8901A2FE0B40105A212B340030236F0901929E0903F0FF828287374DDD8
:202B4000909000F0749E909000F0D205753F5F75409E12DFBBC205753F187540FC12DFC560
:202B6000120A4174DF909000F07400901813F07400901815F07403901816F0120F2B901A3A
:202B80008F7401F0A37400F090180D746DF0A37456F0901A3A745FF0A3742AF0740790185C
:202BA00009F0740290180AF0901A2FE064026005A212B34003022F23901817E0B401369068
:202BC0001814E07005901A2FE4F0901814E0B401067403901A2FF0901814E0B40206740361
:202BE000901A2FF0901814E0B4030812278B901817E4F0801D901A2FE064386007901A2F28
:202C0000E0B43005129B60800912278B7403901814F0901A2FE07012901A307401F0901A4A
:202C20002F7401F07400901814F0901A2FE0B403028003022D7B7403901816F074029019FD
:202C400028F07E6A7F90901FF0E0FCA3E0FDEF2DFDEE3CFC90192BECF0A3EDF07E6C7F4052
:202C6000901FF0E0FAA3E0FBEF2BFBEE3AFA90192DEAF0A3EBF0901817E0B40121901814C7
:202C8000E0B40105901929E4F0901814E0B402069019297401F0901A2F7401F08003120F83
:202CA000B8901A2FE0B401028003022D7B901929E0903F39F82828737401901814F0901A7F
:202CC0002FE064026005A212B3400280797E6C7F80901FF0E0FCA3E0FDEF2DFDEE3CFC90C5
:202CE000192BECF0A3EDF0120F40129950901A2FE0B4022712278B901A2FE0B4011DC2052C
:202D0000753F187540FC12DFBB901A91E0F53FA3E0F54012DFC5901A2FE4F0901A2FE0B4B3
:202D2000011EC205901A91E0F53FA3E0F54012DFBB753F187540FC12DFC57402901A2FF088
:202D400012142F022CBE901A2F7401F0802D7402901814F07E6F7F20901FF0E0FCA3E0FD9E
:202D6000EF2DFDEE3CFC90192BECF0A3EDF090180D746DF0A37456F012281A901A2FE0B440
:202D800001028003022F1D901817E06005901817E4F074DF909000F0123FED7E6A7F9090A0
:202DA0001FF0E0FCA3E0FDEF2DFDEE3CFC90192BECF0A3EDF090180DE0901952F090180E03
:202DC000E0901953F0741C901931F07402901932F012D6D41240EF201703022ED6901A2F76
:202DE000E0B4FF05A212B34003022ED41241101242651242A1901A2FE0B402028003022E58
:202E0000CE74FF901A2FF0754100E541D39420501EE54190193612E0BFE541FEE0FFEE90A0
:202E200019E612E0BFEFF07841740126F650DB750DC8750E0F1201571245A9901A2FE0642B
:202E4000026053D205901A3AE0F53FA3E0F54012DFBBC2057E107F28901A8FE0FCA3E0FDF9
:202E6000EF2DFDEE3CFC901A94E075F008A4FFAEF0ED2FFFEC3EFE8E3F8F4012DFD9753FEA
:202E8000187540FC12DFC5901A8EE4F074FF901A2FF0D2178002C217754100E541D39420C4
:202EA000501EE5419019E612E0BFE541FEE0FFEE90193612E0BFEFF07841740126F650DB69
:202EC000901931E4F07420901932F012D6D412142F022DDD8047901A2FE0B4FF05A212B329
:202EE00040028039124110124265901A30E0B4010A901A2FE4F0901A30E4F0901A2FE070BE
:202F000017901931E4F07420901932F012D6D412B40C74FF901A2FF012142F80B912142FE0
:202F2000022BA874F0901A2FF00236F074DD909000F0D205753F5F75409E12DFBBC20575E1
:202F40003F187540FC12DFC5120A41749E909000F07401901813F07400901815F0740390EC
:202F60001816F0120F2B7480901A8FF8E4F0E8A3F090180D7420F0A37456F0901A3A745F26
:202F8000F0A37406F07407901809F0740490180AF0901A2FE064026005A212B3400302339B
:202FA00009901817E0B40136901814E07005901A2FE4F0901814E0B401067403901A2FF029
:202FC000901814E0B402067403901A2FF0901814E0B4030812265B901817E4F0801D901A91
:202FE0002FE064386007901A2FE0B43005129B60800912265B7403901814F0901A2FE070A8
:2030000012901A307401F0901A2F7401F07400901814F0901A2FE0B4030280030231617404
:2030200003901816F07402901928F07E6A7F70901FF0E0FCA3E0FDEF2DFDEE3CFC90192BC3
:20304000ECF0A3EDF07E6C7F40901FF0E0FAA3E0FBEF2BFBEE3AFA90192DEAF0A3EBF0907F
:203060001817E0B40121901814E0B40105901929E4F0901814E0B402069019297401F09050
:203080001A2F7401F08003120FB8901A2FE0B401028003023161901929E0903F3FF8282897
:2030A000737401901814F0901A2FE064026005A212B3400280767E6C7F60901FF0E0FCA372
:2030C000E0FDEF2DFDEE3CFC90192BECF0A3EDF0120F40129950901A2FE0B4022712265B1F
:2030E000901A2FE0B4011DC205753F187540FC12DFBB901A91E0F53FA3E0F54012DFC59008
:203100001A2FE4F0901A2FE0B4011EC205901A91E0F53FA3E0F54012DFBB753F187540FC0F
:2031200012DFC57402901A2FF00230A7901A2F7401F0802D7402901814F07E6F7F20901F79
:20314000F0E0FCA3E0FDEF2DFDEE3CFC90192BECF0A3EDF090180D7420F0A37456F01228E4
:203160001A901A2FE0B401028003023303901817E06005901817E4F0749E909000F0123F00
:20318000ED7E6A7F70901FF0E0FCA3E0FDEF2DFDEE3CFC90192BECF0A3EDF090180DE090DC
:2031A0001952F090180EE0901953F0741C901931F07402901932F012D6D41240EF20170360
:2031C0000232BC901A2FE0B4FF05A212B340030232BA1241101242651242A1901A2FE0B478
:2031E000020280030232B474FF901A2FF0754100E541D39420501EE54190193612E0BFE5B8
:2032000041FEE0FFEE9019E612E0BFEFF07841740126F650DB750DC8750E0F120157124571
:20322000A9901A2FE064026053D205901A3AE0F53FA3E0F54012DFBBC2057E107F28901A3A
:203240008FE0FCA3E0FDEF2DFDEE3CFC901A94E075F008A4FFAEF0ED2FFFEC3EFE8E3F8FD9
:203260004012DFD9753F187540FC12DFC5901A8EE4F074FF901A2FF0D2178002C2177541CF
:2032800000E541D39420501EE5419019E612E0BFE541FEE0FFEE90193612E0BFEFF0784194
:2032A000740126F650DB901931E4F07420901932F012D6D412142F0231C38047901A2FE0BE
:2032C000B4FF05A212B340028039124110124265901A30E0B4010A901A2FE4F0901A30E4D4
:2032E000F0901A2FE07017901931E4F07420901932F012D6D412B40C74FF901A2FF01214A1
:203300002F80B912142F022F9174F0901A2FF00236F074DD909000F0D205753F5F75409E3B
:2033200012DFBBC205753F187540FC12DFC5120A417402901813F07400901815F074039041
:203340001816F0120F2B901A8FE4F0A3F090180D7420F0A37456F0901A3A745FF0A3741CF3
:20336000F07407901809F0740390180AF0901A30E4F0901A2FE064026005A212B34003024A
:2033800036EA901817E0B40136901814E07005901A2FE4F0901814E0B401067403901A2F1E
:2033A000F0901814E0B402067403901A2FF0901814E0B403081225CC901817E4F0801D9067
:2033C0001A2FE064386007901A2FE0B43005129B6080091225CC7403901814F0901A2FE0AA
:2033E0007012901A307401F0901A2F7401F07400901814F0901A2FE0B40302800302354240
:203400007403901816F07402901928F07E6A7F50901FF0E0FCA3E0FDEF2DFDEE3CFC9019B6
:203420002BECF0A3EDF07E6C7F40901FF0E0FAA3E0FBEF2BFBEE3AFA90192DEAF0A3EBF000
:20344000901817E0B40121901814E0B40105901929E4F0901814E0B402069019297401F06C
:20346000901A2F7401F08003120FB8901A2FE0B401028003023542901929E0903F45F82860
:2034800028737401901814F0901A2FE064026005A212B3400280767E6C7F60901FF0E0FC09
:2034A000A3E0FDEF2DFDEE3CFC90192BECF0A3EDF0120F40129950901A2FE0B402271225F4
:2034C000CC901A2FE0B4011DC205753F187540FC12DFBB901A91E0F53FA3E0F54012DFC5E8
:2034E000901A2FE4F0901A2FE0B4011EC205901A91E0F53FA3E0F54012DFBB753F18754098
:20350000FC12DFC57402901A2FF0023488901A2F7401F0802D7402901814F07E6F7F2090D3
:203520001FF0E0FCA3E0FDEF2DFDEE3CFC90192BECF0A3EDF090180D7420F0A37456F01209
:20354000281A901A2FE0B4010280030236E4901817E06005901817E4F074DD909000F01210
:203560003FED7E6A7F50901FF0E0FCA3E0FDEF2DFDEE3CFC90192BECF0A3EDF090180DE069
:20358000901952F090180EE0901953F0741C901931F07402901932F012D6D41240EF2017EF
:2035A0000302369D901A2FE0B4FF05A212B3400302369B1241101242651242A1901A2FE07B
:2035C000B40202800302369574FF901A2FF0754100E541D39420501EE54190193612E0BF20
:2035E000E541FEE0FFEE9019E612E0BFEFF07841740126F650DB750DC8750E0F12015712EE
:2036000045A9901A2FE064026053D205901A3AE0F53FA3E0F54012DFBBC2057E107F28902B
:203620001A8FE0FCA3E0FDEF2DFDEE3CFC901A94E075F008A4FFAEF0ED2FFFEC3EFE8E3F6A
:203640008F4012DFD9753F187540FC12DFC5901A8EE4F074FF901A2FF0D2178002C217759D
:203660004100E541D39420501EE5419019E612E0BFE541FEE0FFEE90193612E0BFEFF078B0
:2036800041740126F650DB901931E4F07420901932F012D6D412142F0235A48047901A2F94
:2036A000E0B4FF05A212B340028039124110124265901A30E0B4010A901A2FE4F0901A30F4
:2036C000E4F0901A2FE07017901931E4F07420901932F012D6D412B40C74FF901A2FF012ED
:2036E000142F80B912142F02337274F0901A2FF0901A2FE0B402087402901A2FF0800312DA
:203700000F2B12142F022AA0023EF0901817E070067401901812F07402901816F0901A5AC2
:203720007401F0C217901A2FE064026005A212B34003023EF0120DEB74DF909000F0740FFD
:20374000908003F0D205901A3A745FF0A3742AF07407901809F090180A7401F0740990195E
:2037600028F07E697F70901FF0E0FCA3E0FDEF2DFDEE3CFC90192BECF0A3EDF0120F40127E
:203780000F2B7E697FC0901FF0E0FCA3E0FDEF2DFDEE3CFC90192DECF0A3EDF0901817E0BE
:2037A000B4011C901813E0901929F0901A2F7401F07400901814F07400901815F0800312C7
:2037C0000FB8901817E06005901817E4F0901A2FE0B40105A212B34003023B03901929E07C
:2037E000903F18F82828737400901813F07403901816F0901A57E4F0901A59E4F0744A90E9
:203800001A58F0901A8F7403F0A37480F07E6B7F20901FF0E0FCA3E0FDEF2DFDEE3CFC90CD
:20382000192BECF0A3EDF090192BE0F8A3E090192DC8F0A3C8F0120F4012A3A8023B03745E
:2038400001901813F07403901816F0901A577401F0901A59E4F0744C901A58F0901A8F74FB
:2038600004F0A37400F07E6B7F40901FF0E0FCA3E0FDEF2DFDEE3CFC90192BECF0A3EDF03B
:2038800090192BE0F8A3E090192DC8F0A3C8F0120F4012A3A8023B037402901813F074037A
:2038A000901816F07402901A57F0901A59E4F07454901A58F0901A8F7404F0A37480F07EBC
:2038C0006B7F60901FF0E0FCA3E0FDEF2DFDEE3CFC90192BECF0A3EDF090192BE0F8A3E005
:2038E00090192DC8F0A3C8F0120F4012A3A8023B037403901813F07403901816F074039093
:203900001A57F0901A59E4F07455901A58F0901A8F7405F0A37400F07E6B7F80901FF0E0A4
:20392000FCA3E0FDEF2DFDEE3CFC90192BECF0A3EDF090192BE0F8A3E090192DC8F0A3C874
:20394000F0120F4012A3A8023B037404901813F07403901816F07404901A57F0901A59E4E1
:20396000F0744B901A58F0901A8F7405F0A37480F07E6B7FA0901FF0E0FCA3E0FDEF2DFD61
:20398000EE3CFC90192BECF0A3EDF090192BE0F8A3E090192DC8F0A3C8F0120F4012A3A8FB
:2039A000023B037405901813F07403901816F07405901A57F0901A59E4F07445901A58F092
:2039C000901A8F7406F0A37400F07E6B7FC0901FF0E0FCA3E0FDEF2DFDEE3CFC90192BEC1B
:2039E000F0A3EDF090192BE0F8A3E090192DC8F0A3C8F0120F4012A3A8023B03740690181F
:203A000013F07403901816F07406901A57F0901A59E4F07453901A58F0901A8F7406F0A33D
:203A20007480F07E6B7FE0901FF0E0FCA3E0FDEF2DFDEE3CFC90192BECF0A3EDF090192B1C
:203A4000E0F8A3E090192DC8F0A3C8F0120F4012A3A8023B037407901813F07403901816C9
:203A6000F07407901A57F0901A59E4F07452901A58F0901A8F7407F0A37400F07E6C7F0047
:203A8000901FF0E0FCA3E0FDEF2DFDEE3CFC90192BECF0A3EDF090192BE0F8A3E090192DB7
:203AA000C8F0A3C8F0120F4012A3A880567408901813F07403901816F07408901A57F09016
:203AC0001A59E4F07442901A58F0901A8F7407F0A37480F07E6C7F20901FF0E0FCA3E0FD48
:203AE000EF2DFDEE3CFC90192BECF0A3EDF090192BE0F8A3E090192DC8F0A3C8F0120F40DE
:203B000012A3A87400901815F0901A2FE0B402067402901A30F0901A2FE064026005A2123A
:203B2000B34003023EC5901A2FE064386007901A2FE0B43005129B60800312A196901A2F7A
:203B4000E0700C901A307401F0901A2F7401F0901A2FE0B403028003023C697403901816BB
:203B6000F07402901928F07E6B7F00901FF0E0FCA3E0FDEF2DFDEE3CFC90192BECF0A3ED3C
:203B8000F07E6C7F40901FF0E0FAA3E0FBEF2BFBEE3AFA90192DEAF0A3EBF0120FB8901AAD
:203BA0002FE0B401028003023C69901929E0903F33F8282873901A2FE064026005A212B3BB
:203BC000400280767E6C7FA0901FF0E0FCA3E0FDEF2DFDEE3CFC90192BECF0A3EDF0120F19
:203BE00040129950901A2FE0B4022712A196901A2FE0B4011DC205753F1A75407212DFBBB8
:203C0000901A91E0F53FA3E0F54012DFC5901A2FE4F0901A2FE0B4011EC205901A91E0F5D7
:203C20003FA3E0F54012DFBB753F1A75407212DFC57402901A2FF0023BB5901A2F7401F0C7
:203C400080277E6F7F20901FF0E0FCA3E0FDEF2DFDEE3CFC90192BECF0A3EDF090180D749E
:203C600020F0A37420F012281A901A2FE0B401028003023EB31205D0753F1A75406112DF17
:203C8000BB753F187540FC12DFC5123FED7E6A7FE0901FF0E0FCA3E0FDEF2DFDEE3CFC90E7
:203CA000192BECF0A3EDF0120F40901A58E090193AF07404901931F09019327401F012D6E4
:203CC000D474DF901944F0901FF2E0901945F0740E901931F07402901932F012D6D474DFE5
:203CE000901952F0901FF2E0901953F0741C901931F07402901932F012D6D474449019466E
:203D0000F07410901931F09019327401F012D6D474FF901A2FF0C212201703023E38901AFD
:203D20002FE0B4FF05A212B34003023E361220FF1222B91222E5901A2FE0B402028003026F
:203D40003E0674FF901A2FF0754100E541D39420501EE54190193612E0BFE541FEE0FFEE6B
:203D60009019E612E0BFEFF07841740126F650DB750DC8750E0F1201571245A9901A2FE0B0
:203D80006402604AC2057E107F28901A8FE0FCA3E0FDEF2DFDEE3CFC901A94E075F008A414
:203DA000FFAEF0ED2FFFEC3EFE8E3F8F4012DFBB753F1A75407212DFC51205D0123FED907B
:203DC0001A8EE4F074FF901A2FF0D2178002C217754100E541D39420501EE5419019E6124F
:203DE000E0BFE541FEE0FFEE90193612E0BFEFF07841740126F650DB901931E4F07420907D
:203E00001932F012D6D412142F901A56E07024901A69E0B4011D1205D0753F1A7540611240
:203E2000DFBB753F187540FC12DFC5123FED901A69E4F0023D1E8071901A2FE0B4FF05A22F
:203E400012B3400280631220FF1222B9901A30E0B4010A901A2FE4F0901A30E4F0901A2FAD
:203E6000E07017901931E4F07420901932F012D6D412B40C74FF901A2FF012142F901A56AF
:203E8000E07024901A69E0B4011D1205D0753F1A75406112DFBB753F187540FC12DFC5122D
:203EA0003FED901A69E4F0808F901A2FE0B40203120F2B901A2FE0B40205901A30E4F012EE
:203EC000142F023B16740E908003F0901A2FE0B40208901A30E06402600280087402901A26
:203EE0002FF0800674F0901A2FF012142F02372512142F022A05220228C50228CA0228CFB9
:203F000002294002294502294A022AA002370B022B3E022F2C0233120237E702383F02385F
:203F2000980238F102394A0239A30239FC023A55023AAD023BB5023C42022CB8022D4E02D3
:203F400030A1023134023482023515D205901A3AE0F53FA3E0F54012DFBBC205753F1975E9
:203F6000400812DFD92212DFBBC205753F1975400812DFC5D205753F5F75408E12DFBBC2BF
:203F800005753F1975400812DFD9753F1975400812DFC52212DFBBC205753F1A75407212EC
:203FA000DFC5D205753F5F75408E12DFBBC205753F1A75407212DFD9753F1A75407212DF18
:203FC000C51205D0754100E541D39403501EE541901A6112E0BFE541FEE0FFEE90190812EB
:203FE000E0BFEFF07841740126F650DB22D205901A3AE0F53FA3E0F54012DFBBC205753FFE
:20400000187540FC12DFD9753F1975400C12DFC5901812E0B4010280030240A4754100E574
:2040200041D39403501EE541901A7212E0BFE541FEE0FFEE901A7612E0BFEFF078417401A5
:2040400026F650DBD205901800E0F53FA3E0F540123F94123F4B753F1975401412DFC5D22F
:2040600005901802E0F53FA3E0F540123F94123F4B753F1975401012DFC5754100E541D34D
:204080009403501EE541901A7612E0BFE541FEE0FFEE901A7212E0BFEFF07841740126F63D
:2040A00050DB8036D205901800E0F53FA3E0F540123F66123F4B753F1975401412DFC5D263
:2040C00005901802E0F53FA3E0F540123F66123F4B753F1975401012DFC5C205753F1975C1
:2040E000400C12DFBB753F187540FC12DFC522120F407444901946F07410901931F0901984
:20410000327401F012D6D474FF901A2FF0C2122290192BE0F8A3E090192FC8F0A3C8F07E82
:20412000627F20901FF0E0FCA3E0FDEF2DFDEE3CFC90192BECF0A3EDF07420901931F07442
:2041400020901932F012D69790192FE0F8A3E090192BC8F0A3C8F0901944E0901964F09081
:204160001945E0901965F0901944E0901974F0901945E0901975F0120A41301A57120670C7
:204180001209E4D205901A3AE0F53FA3E0F54012DFBBC205753F1875407C12DFED753F187F
:2041A00075401C12DFB1129715754100901809E014C39541401EE54190185C12E0BFE5417B
:2041C000FEE0FFEE90196A12E0BFEFF07841740126F650D8C205753F187540FC12DFBB759A
:2041E0003F1875407C12DFC5D205901A3AE0F53FA3E0F54012DFBBC205753F1875407C1278
:20420000DFED753F1875401C12DFB1129715754100901809E014C39541401EE54190185C59
:2042200012E0BFE541FEE0FFEE90194A12E0BFEFF07841740126F650D8754100901809E0A0
:2042400014C39541401EE54190185C12E0BFE541FEE0FFEE90195A12E0BFEFF078417401C6
:2042600026F650D822301A147420901931F07420901932F012D6D4120DEB800E901931E4AB
:20428000F07420901932F012D6D412142F128122901A2FE0B40109120F2B74F0901A2FF019
:2042A00022901A8CE0B401028003024347901A8CE4F0901A8EE06007901A8DE0B4010C742B
:2042C00038901A2FF0901A8D7401F0901A8EE0FE901A86E06E6006901A8DE0704CC205901D
:2042E0001A86E0900072F8E4F0E8A3F012E00B753F187540BC12DFC5D205753F5F754098CE
:2043000012DFBBC205753F187540BC12DFCF753F1A75408212DFF7900071E0B4010B7430FB
:20432000901A2FF0901A8DE4F0901A8EE0FE901A86E0C39E4006901A8DE0700B7430901AFC
:204340002FF0901A8DE4F0901A2FE0B438028003024444C205901A8EE004F0901A8D740100
:20436000F0901A8EE0FE901A86E0D39E402CD205901A3AE0F53FA3E0F54012DFBBC20575DB
:204380003F1075407812DFD9753F187540FC12DFCF753F187540FC12DFC5901A8EE0FE90C1
:2043A0001A86E0B5063ED205901A3AE0F53FA3E0F54012DFBBC205753F1075407812DFD9CF
:2043C000753F187540FC12DFCF753F187540FC12DFC5753F187540FC12DFBB753F187540C3
:2043E000D412DFC5901A8EE0FE901A86E0C39E504D901A86E004901A8EF0D205901A3AE038
:20440000F53FA3E0F54012DFBBC2057E107F2C901A8FE0FCA3E0FDEF2DFDEE3CFC901A94F2
:20442000E075F008A4FFAEF0ED2FFFEC3EFE8E3F8F4012DFD9753F187540FC12DFC574FF9F
:20444000901A2FF0901A2FE0B430028003024510C205901A8EE014F0901A8DE4F0901A8EF4
:20446000E0FE901A86E0D39E402CD205901A3AE0F53FA3E0F54012DFBBC205753F107540FE
:204480007812DFD9753F187540FC12DF9D753F187540FC12DFC5901A8EE0FE901A86E0B5C1
:2044A0000612753F187540D412DFBB753F187540FC12DFC5901A8EE0FE901A86E0C39E50D9
:2044C00049901A8EE4F0D205901A3AE0F53FA3E0F54012DFBBC2057E107F28901A8FE0FC43
:2044E000A3E0FDEF2DFDEE3CFC901A94E075F008A4FFAEF0ED2FFFEC3EFE8E3F8F4012DF61
:20450000D9753F187540FC12DFC574FF901A2FF0901A8BE0B40168901A88E0700E901A8760
:20452000E0901A88F0901A8C7401F0901A88E0B40117128122901A2FE0B40205901A8BE4BE
:20454000F0901A89E4F0A304F0901A89E0FEA3E0FF7402BE00039F500B7402901A89F8E484
:20456000F0E8A3F0901A891281ED901A89E0FEA3E0FFEF4E7009901A88E014F012174290C3
:204580001A2FE07006901A8BE06002800912B40C74FF901A2FF0901A2FE06402600874FF74
:2045A000901A2FF08002C21722901929E090192AF07405901808F0740B901807F0D2152002
:2045C00015030246597E647FA0901FF0E0FCA3E0FDEF2DFDEE3CFC90192BECF0A3EDF012A5
:2045E0000F40750DFA750E0A120157743F901942F0740C901931F09019327401F012D6D425
:20460000750DFA750E0A1201577431901A2FF0120F2B121043753F1875401C12DFA7753F1F
:204620001A75408212DFC5753F1A75408212DFBB12E033900070E0FEA3E0FFEF4E6009EFA8
:20464000C39400EE940140028002C215901A2FE064016002C2150245BF900071E0901A8677
:20466000F0753F1A75408212DFBB753F1075407C12DFC57E107F2C901A8FE0FCA3E0FDEF31
:204680002DFDEE3CFC901A94E075F008A4FFAEF0ED2FFFEC3EFE8E3F8F4012DFBB7E107F66
:2046A00028901A8FE0FCA3E0FDEF2DFDEE3CFC901A94E075F008A4FFAEF0ED2FFFEC3EFEEF
:2046C0008E3F8F4012DF93753F1075407412DFC512DFBB753F1075407C12DFE3753F107569
:2046E000407812DFC5D205753F5F75409E12DFBBC205753F1075407412DFF7900071E0B432
:20470000010F753F1075407412DFBB12DF8912DFC5D205753F5F75402A12DFBBC205753FD0
:204720001075407412DFED12DFC57E107F28901A8FE0FCA3E0FDEF2DFDEE3CFC901A94E085
:2047400075F008A4FFAEF0ED2FFFEC3EFE8E3F8F4012DFBB901812E0B4010B753F1A754043
:204760007212DFC58009753F187540FC12DFC5901A8EE4F0D217901A2FE064027003024884
:20478000C67402901928F07E657F20901FF0E0FCA3E0FDEF2DFDEE3CFC90192BECF0A3ED20
:2047A000F07E657F40901FF0E0FAA3E0FBEF2BFBEE3AFA90192DEAF0A3EBF0120F40120F89
:2047C0002B120FB8901A2FE0B4010280030248C6901929E090562FF8282873901A8BE4F047
:2047E00074449019F6F074209019F7F074209019F8F074209019F9F00248C67403901808CC
:20480000F0740C901807F0D215901A8B7401F020150302489C7E657F60901FF0E0FCA3E02A
:20482000FDEF2DFDEE3CFC90192BECF0A3EDF0120F40750DFA750E0A120157743F9019429A
:20484000F0740C901931F09019327401F012D6D4750DFA750E0A1201577431901A2FF0122F
:204860000F2B121043753F1875401C12DFA712E033900070E0FEA3E0FFEF4E6009EFC394F3
:2048800000EE940140028002C215901A2FE064016007C215901A8BE4F002480F900071E05B
:2048A000901A87F0901A87E0901A88F0901A89E4F0A3F0901A8CE4F0901A8D7401F09019BB
:2048C0002AE0901929F0227406901808F07408901807F090180074F0F0A3743CF0901802CC
:2048E00074F0F0A37444F0D215A212B3821540030249937E627F60901FF0E0FCA3E0FDEF6A
:204900002DFDEE3CFC901933E02DFD50010C90192BECF0A3EDF0120F40750DFA750E05125D
:204920000157901811E0B403367420901946F07430901947F0742E901948F0743090194989
:20494000F0743090194AF07410901931F07405901932F012D6D4750DFA750E0512015774B0
:204960003F90193EF07408901931F09019327401F012D6D4750DFA750E0A120157120F2B20
:204980001210431212A4901A2FE064016002C2150248E9227406901808F07408901807F009
:2049A00090180074F0F0A3744CF090180274F0F0A37454F0D215A212B382154003024A607B
:2049C0007E627FC0901FF0E0FCA3E0FDEF2DFDEE3CFC901933E02DFD50010C90192BECF08B
:2049E000A3EDF0120F40750DFA750E05120157901811E0B403367420901946F07430901922
:204A000047F0742E901948F07430901949F0743090194AF07410901931F07405901932F03D
:204A200012D6D4750DFA750E05120157743F90193EF07408901931F09019327401F012D654
:204A4000D4750DFA750E0A120157120F2B1210431212A4901A2FE064016002C2150249B63E
:204A600022901A2FE4F0901929E4F0C217901A2FE0D394025009901A2FE0C394015005A265
:204A800012B34003024BD47404901928F07E6F7F20901FF0E0FCA3E0FDEF2DFDEE3CFC905E
:204AA000192DECF0A3EDF0129DC1901929E0901A94F0901A2FE0B402028003024BC774F098
:204AC000901A2FF0901A2FE064027003024BC790180F743FF0A37420F07420901933F090F6
:204AE0001A8FE0FEA3E0FF740712D7C8EFC39403905635F82828731248C7800D1249948045
:204B0000081248C7800312499490180F7420F0A37420F0753F187540FC12DFBB7E107F283A
:204B2000901A8FE0FCA3E0FDEF2DFDEE3CFC901A94E075F008A4FFAEF0ED2FFFEC3EFE8E04
:204B40003F8F4012DFC590180F743FF0A37420F07440901933F0901A8FE0FEA3E0FF74077C
:204B600012D7C8EFC39403905641F82828731248C7800D12499480081248C78003124994A1
:204B800090180F7420F0A37420F0753F187540FC12DFBB7E107F2C901A8FE0FCA3E0FDEFCD
:204BA0002DFDEE3CFC901A94E075F008A4FFAEF0ED2FFFEC3EFE8E3F8F4012DFC5901A2F6B
:204BC000E4F0901933E4F0901A2FE0B401031245A9024A6D2275B8E175A881901817E0704A
:204BE000187400901812F07400901813F07403901814F07404901815F0C217C212C2139006
:204C00001A2DE0901A2EF07430901A93F0901A30E4F0901811E0701A7E667F50901FF0E0D1
:204C2000FCA3E0FDEF2DFDEE3CFC90192BECF0A3EDF0901811E0B4031A7E687F50901FF0CB
:204C4000E0FCA3E0FDEF2DFDEE3CFC90192BECF0A3EDF0120F4030120302562E901816742B
:204C600001F09019287401F0901811E0701A7E667F50901FF0E0FCA3E0FDEF2DFDEE3CFCFD
:204C800090192BECF0A3EDF0901811E0B4031A7E687F50901FF0E0FCA3E0FDEF2DFDEE3C87
:204CA000FC90192BECF0A3EDF0901A2F7401F0901929E4F0901A2FE0B40102800302562871
:204CC000901929E090564DF8282873901A2FE064026005A212B34003025628120DEB740206
:204CE000901816F07402901928F0901811E0701A7E667F90901FF0E0FCA3E0FDEF2DFDEEB7
:204D00003CFC90192BECF0A3EDF0901811E0B4031A7E687F70901FF0E0FCA3E0FDEF2DFDD8
:204D2000EE3CFC90192BECF0A3EDF0120F40120F2B7E667FF0901FF0E0FCA3E0FDEF2DFD09
:204D4000EE3CFC90192DECF0A3EDF0901817E0B4012E901815E064046016901813E09019BA
:204D600029F0901A2F7401F07400901815F0800E901817E4F0120FB87400901815F080031D
:204D8000120FB8901A2FE0B401028003025613901929E0905650F82828737400901813F01A
:204DA0007400901815F074BE909000F0D205753F5F75409E12DFBBC205753F187540FC1251
:204DC000DFC5120A4174DF909000F074FF901A2FF0901811E0700A901A8F7402F0A374006A
:204DE000F0901811E0B4030A901A8F7403F0A37400F090180D746DF0A37441F0901A3A749C
:204E00005FF0A3741CF07407901809F0740390180AF0901A2FE064026005A212B3400302BB
:204E200051CF901817E0B40136901814E07005901A2FE4F0901814E0B401067403901A2F63
:204E4000F0901814E0B402067403901A2FF0901814E0B40308124994901817E4F0801D90C0
:204E60001A2FE064386007901A2FE0B43005129B6080091249947403901814F0901A2FE003
:204E80007012901A307401F0901A2F7401F07400901814F0901A2FE0B403028003025009A3
:204EA0007403901816F07402901928F0901811E0701A7E677F60901FF0E0FCA3E0FDEF2D98
:204EC000FDEE3CFC90192BECF0A3EDF0901811E0B4031A7E687FB0901FF0E0FCA3E0FDEF16
:204EE0002DFDEE3CFC90192BECF0A3EDF07E6C7F40901FF0E0FCA3E0FDEF2DFDEE3CFC90BF
:204F0000192DECF0A3EDF0901817E0B40121901814E0B40105901929E4F0901814E0B4022C
:204F2000069019297401F0901A2F7401F08003120FB8901A2FE0B4010280030250099019A3
:204F400029E0905656F82828737401901814F0901A2FE064026005A212B3400280767E6728
:204F60007FB0901FF0E0FCA3E0FDEF2DFDEE3CFC90192BECF0A3EDF0120F40129950901A92
:204F80002FE0B40227124994901A2FE0B4011DC205753F187540FC12DFBB901A91E0F53F6C
:204FA000A3E0F54012DFC5901A2FE4F0901A2FE0B4011EC205901A91E0F53FA3E0F540126A
:204FC000DFBB753F187540FC12DFC57402901A2FF0024F4F901A2F7401F0802D740290181C
:204FE00014F07E6F7F20901FF0E0FCA3E0FDEF2DFDEE3CFC90192BECF0A3EDF090180D748E
:205000006DF0A37441F0124A61901A2FE0B4010280030251CC901817E06005901817E4F085
:2050200074DF909000F0123FED901811E0701A7E677F60901FF0E0FCA3E0FDEF2DFDEE3CAA
:20504000FC90192BECF0A3EDF0901811E0B4031A7E687FB0901FF0E0FCA3E0FDEF2DFDEEA3
:205060003CFC90192BECF0A3EDF090180DE0901952F090180EE0901953F0741C901931F06C
:205080007402901932F012D6D41240EF201703025188901A2FE0B4FF05A212B3400302514F
:2050A000861241101242651242A1901A2FE0B40202800302518374FF901A2FF0754100E5B8
:2050C00041D39420501EE54190193612E0BFE541FEE0FFEE9019E612E0BFEFF078417401A6
:2050E00026F650DB750DC8750E0F1201571245A9901A2FE064026053D205901A3AE0F53F82
:20510000A3E0F54012DFBBC2057E107F28901A8FE0FCA3E0FDEF2DFDEE3CFC901A94E075C8
:20512000F008A4FFAEF0ED2FFFEC3EFE8E3F8F4012DFD9753F187540FC12DFC5901A8EE43E
:20514000F074FF901A2FF0D2178002C217754100E541D39420501EE5419019E612E0BFE5C3
:2051600041FEE0FFEE90193612E0BFEFF07841740126F650DB901931E4F07420901932F032
:2051800012D6D40250928044901A2FE0B4FF05A212B340028036124110124265901A30E005
:2051A000B4010A901A2FE4F0901A30E4F0901A2FE07017901931E4F07420901932F012D6A0
:2051C000D412B40C74FF901A2FF080BC024E1274F0901A2FF00256137401901813F0740023
:2051E000901815F074BE909000F0D205753F5F75409E12DFBBC205753F187540FC12DFC5DD
:20520000120A41749E909000F074FF901A2FF0901811E0700A901A8F7401F0A37480F0900B
:205220001811E0B4030A901A8F7402F0A37480F090180D746DF0A37441F0901A3A745FF009
:20524000A3742AF07407901809F0740290180AF0901A2FE064026005A212B3400302560D56
:20526000901817E0B40136901814E07005901A2FE4F0901814E0B401067403901A2FF090BF
:205280001814E0B402067403901A2FF0901814E0B403081248C7901817E4F0801D901A2F81
:2052A000E064386007901A2FE0B43005129B6080091248C77403901814F0901A2FE0701254
:2052C000901A307401F0901A2F7401F07400901814F0901A2FE0B403028003025447740328
:2052E000901816F07402901928F0901811E0701A7E677F40901FF0E0FCA3E0FDEF2DFDEE00
:205300003CFC90192BECF0A3EDF0901811E0B4031A7E687F90901FF0E0FCA3E0FDEF2DFDB2
:20532000EE3CFC90192BECF0A3EDF07E6C7F40901FF0E0FCA3E0FDEF2DFDEE3CFC90192D5E
:20534000ECF0A3EDF0901817E0B40121901814E0B40105901929E4F0901814E0B402069098
:2053600019297401F0901A2F7401F08003120FB8901A2FE0B401028003025447901929E0AA
:2053800090565CF82828737401901814F0901A2FE064026005A212B3400280767E677FB0B8
:2053A000901FF0E0FCA3E0FDEF2DFDEE3CFC90192BECF0A3EDF0120F40129950901A2FE06E
:2053C000B402271248C7901A2FE0B4011DC205753F187540FC12DFBB901A91E0F53FA3E082
:2053E000F54012DFC5901A2FE4F0901A2FE0B4011EC205901A91E0F53FA3E0F54012DFBB0F
:20540000753F187540FC12DFC57402901A2FF002538D901A2F7401F0802D7402901814F02B
:205420007E6F7F20901FF0E0FCA3E0FDEF2DFDEE3CFC90192BECF0A3EDF090180D746DF0F0
:20544000A37441F0124A61901A2FE0B40102800302560A901817E06005901817E4F0749E49
:20546000909000F0123FED901811E0701A7E677F40901FF0E0FCA3E0FDEF2DFDEE3CFC904D
:20548000192BECF0A3EDF0901811E0B4031A7E687F90901FF0E0FCA3E0FDEF2DFDEE3CFCD3
:2054A00090192BECF0A3EDF090180DE0901952F090180EE0901953F0741C901931F07402EA
:2054C000901932F012D6D41240EF2017030255C6901A2FE0B4FF05A212B340030255C41265
:2054E00041101242651242A1901A2FE0B4020280030255C174FF901A2FF0754100E541D3B6
:205500009420501EE54190193612E0BFE541FEE0FFEE9019E612E0BFEFF07841740126F659
:2055200050DB750DC8750E0F1201571245A9901A2FE064026053D205901A3AE0F53FA3E0D6
:20554000F54012DFBBC2057E107F28901A8FE0FCA3E0FDEF2DFDEE3CFC901A94E075F0080F
:20556000A4FFAEF0ED2FFFEC3EFE8E3F8F4012DFD9753F187540FC12DFC5901A8EE4F0748E
:20558000FF901A2FF0D2178002C217754100E541D39420501EE5419019E612E0BFE541FEA4
:2055A000E0FFEE90193612E0BFEFF07841740126F650DB901931E4F07420901932F012D645
:2055C000D40254D08044901A2FE0B4FF05A212B340028036124110124265901A30E0B401B2
:2055E0000A901A2FE4F0901A30E4F0901A2FE07017901931E4F07420901932F012D6D4122B
:20560000B40C74FF901A2FF080BC02525074F0901A2FF0901A2FE0B402087402901A2FF0CB
:205620008003120F2B024CCB12142F024C56220247DB0247FB024AF7024AFC024B01024BD9
:2056400006024B6E024B73024B78024B7D024CCB024D9A0251D8024F49024FDC0253870268
:20566000541ADE00814194FC02422C9D42403AC4983E0000000089419F4135285ABE0531D4
:20568000083C4558784168F981416BE0CD3D8080E5BAC15284434304E640D70DF53D4E9D11
:2056A000DEB9E7B42FBD3394473DF3D91A37FC0D4DB416E1273B710E4E3D5B0AF237233313
:2056C0006EB3C6358CBF5BD9803D9A29BAB7A6A2B0326975AAC12E54DE3D6A8C23B8A41F9A
:2056E0002632E17AFCC081951BC0986E2C41CB2129426F128B428F0248C3000048C200008C
:20570000484300803B449200964489CBB53CC0279D410582D53D7957B13DDEEEBEBC36CDE9
:2057200099415C0509BE3CBE893B1A4FFA40537989418433333D32D277BA273112C3CC40DB
:20574000E3410AD763BE351E903A27A9863CF82B5C3D316E8138AC9691B2965FC43A62C5C1
:20576000543DD6EAAD37CFC10FB3AB7AF5BE9E966F3DDA8613B7E6C73032F3BF08413BE794
:20578000C23C582D0B38194BAEB1666602C10000000033332F4114AE06425C8F54428F02FF
:2057A00048C3000000000000484300001644A40061449E1BF34448919244782B6143DA727E
:2057C0007041CD689940D2AFFD41A662D53F581ADD3E8B78E13CED98CF41B3CA43BF2C5CE6
:2057E0001D3D00649140950EBD41C498A4BE5BBD983B5DBD5DBFD5F3C73CE1D507B89217B1
:2058000041B4B599BCBA15911E3D39833D3892C136B348F08EBAFB1D1E3DF0C9363871B91D
:205820009CB2ACBE24BDA2DC203DE2562C388289B8B2C1CAC5C06ABC94C0FED4E8BF2FDDD4
:205840008840B6F3A6418F027AC3000016C3000048C20000C8424801C8433D1B3F41A7A8BA
:2058600016428DB75640D41B133F9C3B953C9F7CCB419A1032BF2A7CB73DC85364BFB88635
:20588000CE41853306BF1B7C213C20FB2642AFDA8D41AD7172BCB0D554BAE7AE2EBD62E10C
:2058A0001D3D23EF4838594399B27C35D4B87209213D972E2838CD9207B4765BB33DDC56CD
:2058C000183DC3CB3B3866F16AB26FD344C0166D7F3DB40E88B73C2BE7326666B6C0CDCC1E
:2058E000ECBF3333034066666E41713D09428F0248C3000048C20000484200009643A40033
:20590000164473A85A437BF43343B0F20F42A8573E40DE21283E13E6CA4130B806BF4EE5D7
:20592000923D20792D405A92B6413CE4883E25D33CBC80EEE93F2B6ACB41E375C5BDB537DC
:20594000D23AA08B38BDDD3E1E3DFDBAC83703D5F7B3F68355BA3171213DDCCFE3375B4580
:20596000FCB3B780EBBD02EA323DDE1A9BB7D7410B339CE704BF0AA5293DDDAF6836353FA5
:2059800054B191EDCCC05A6463C03D0A834008AC64415E3A5B428F027AC30000C8C2000027
:2059A000C8420000AF4352C0A8446FE0F74300116C43A79CFC41849AC73FFE83B33D23C4A8
:2059C0008B41C29D8EBCABE4673D232CCC3DED138741688E41BE7F9B483BF1A9BA41F0EDFB
:2059E0005B415D4309BDCC629039452E70BFECFB2B3DD6DE40B87EB29DB430CFE1B92821AE
:205A0000703D184C5F3896B0C9B34263B13A90146F3DC2065C3887F03EB3D3A2D4BFAC3D87
:205A2000923D1D5A8F37643C34B206811BC191EDE8C0000000009643A8414CB798428F021B
:205A40007AC3000016C30000000000009643A4007A44B232D83CF90F3C435DB4A6C2A1C498
:205A60004942FC27004165191843BE9F7AC19E23EC3F786E1E42A4F0E942D7DB05C0193015
:205A8000123D7EACD3C04F3E0343E73764C0DA64B13D735791B9FAD7B03BCE4453376B04DE
:205AA000AFB270B7BFBC7804C23B1B850A3725FDDBB1363FA6BED72A093C5EE6C0353083D0
:205AC000DD2E7FFBCA3F0643343B5D01EA363A38EDB0FCA971BEB81E253FD34D32402731FB
:205AE0001041310894413D0A48C20000C8420000AF4300806D4452C0DA4458ED603D708EB9
:205B00003D43351ED7C2918D01434BC967402C252543A245E3C168CB9840560EFB41ECD150
:205B2000F442C1CA9DC0139A643E79582B424CB7E14236022AC06EEF643D56AD95387F43E2
:205B4000AD3B56AD6937A342E1B2B77DE4BBECDCB43BB60B3C37699B25B2CB773ABEEBA2E2
:205B6000F03B19969C363A69CCB0268A583F239B8E3BF30FEA367A3EE5B08B6C67BE508D24
:205B8000973EDD24F63FC3F5C4402506A7413D0A48C20000484200007A430080224452C09B
:205BA000DA446290454204AADD44895413C6F68CBA4692FCE142ADA5084419FC96C3B66A6A
:205BC000B64207DE6243C7BA7D43427EE9C102D801401934BC43CAD219437173BEC06EA1C8
:205BE000303E9E910CBBDE9D3FB9CC9EB2367528FD2F59F59CBB4C334EB9E556BE36072B27
:205C000022B02915C33C224CC9B91C15CC36775874B0B16AF23FD9C7A8BB31C62937744CF9
:205C20000BB16F12033BA245363E17D99E3FF0A79A40295C59413D0A4842000048430000D5
:205C4000FA4300007A445200E144C38472C304AF1040D99CFF3AA65544B651DB6DC32EE541
:205C6000034048E59B3BCFB284B7475378C3A19F1A40D03E113ACDAF9C35EDE391C3A169DF
:205C8000354007F152BAF61032369E910CBBDE9D3FB9CC9EB2367528FD2F59F59CBB4C3375
:205CA0004EB9E556BE36072B22B02915C33C224CC9B91C15CC36775874B0B16AF23FD9C76B
:205CC000A8BB31C62937744C0BB1713D9441CDCC70420000C84233D39C43A430C3438F0266
:205CE00048C30000C8C20000000000001644A4805444B38472C3B77DE73EB6A6A338497440
:205D0000C9B2E0FC6DC32A8ED33EAACC4439F48205B4C95178C3A263F73E920ABA37FE5E99
:205D200020329F6EA4C30A65213F4F608FB8B32AF1329E910CBBDE9D3FB9CC9EB236752880
:205D4000FD2F59F59CBB4C334EB9E556BE36072B22B02915C33C224CC9B91C15CC3677588A
:205D600074B0B16AF23FD9C7A8BB31C62937744C0BB1CD4CB942000096430000FA430008AB
:205D8000C444CDFCF3448F0248C30000C8C20000000000001644A4805444B38472C3D87DFE
:205DA000673EB3A6A337497449B1EEFC6DC32A8E533EADCC4438EF8285B2C95178C3A263FA
:205DC000773E910ABA36FE5EA0309E6EA4C30A65A13E4C608FB7B02A71319E910CBBDE9DB7
:205DE0003FB9CC9EB2367528FD2F59F59CBB4C334EB9E556BE36072B22B02915C33C224C87
:205E0000C9B91C15CC36775874B0B16AF23FD9C7A8BB31C62937744C0BB1CD4C39430080A3
:205E2000164400007A4400084445CDFC73458F0248C30000C8C20000000000001644A48094
:205E40005444F1D08CC3410194401F64D9BC3561B138DCF589C3110B8640CE539DBC47B974
:205E60004D38A64E57C3F5DA2240E8EC8ABB290A69361A35A6C3AFBF8C4066F764BC7B4841
:205E8000AB379E910CBBDE9D3FB9CC9EB2367528FD2F59F59CBB4C334EB9E556BE36072B10
:205EA00022B02915C33C224CC9B91C15CC36775874B0B16AF23FD9C7A8BB31C62937744C57
:205EC0000BB100008B423333BD420000F64266E62F439A996F433D0A70C2000021C100009E
:205EE00021420000F0428F0248433D0A48C21F05C84201960196002474490050C3470058B1
:205F000098460070944600401C46FFFF0080BB4500E0AB4500C0F3440080ED4400007A4403
:205F2000FFFFACAAA643000096430000C842FFFF565505420000004200002041FFFF0000B0
:205F40001041000000410000E0400000C040EC51A0400000A0400000984066669640CDCC7F
:205F60009440333393409A999140000090400000804000004040000000406666E63FCDCC36
:205F80008C3FFFFF0000803FFFFFE7FBA93DA4707D3F6666663FFFFFCDCC4C3DFFFF000054
:205FA0000000FFFF000080BFFFFF000020C1FFFF0000C8C2FFFF00007AC4040E15040404CE
:205FC000040004040404150E040000040A110000000000000000110A040000000000000048
:205FE0000000000000000000000000000000000000000000000000000000000000000000A1
:206000002043414C49425241544F522030352020202A2A2A2A2A2A2A2A2A2A2A2A2A202036
:2060200020205349454D454E532041472020202020204B41524C5352554845202020202053
:20604000494E495449414C4953494552554E472020202020202020202020202020202020B0
:2060600043414C2030352D31302D30363932373020202020444555545343482020202020A8
:20608000552D4261747420202020202020202056547265662020202020202020202020206C
:2060A00020204D454E555745434853454C202020202020454947454E544553542020202078
:2060C0002020204241545445524945202020202020554E5445525350414E4E554E47202018
:2060E0004920474542454E20202020202044494732206D413D3E302C3230206D413D3E318F
:2061000049204F484D20202020202020202020204D42313030202020202020202020202052
:2061200049204D455353454E20202020202020204D423230302020202020202020202020AA
:20614000584D545220474542454E2020202020204D42333030202020202020202020202031
:2061600020202020202020202020202020202020202020202020202020202020202020201F
:20618000534348414C5445525354454C4C554E47202020202046414C53434820202020204A
:2061A000552F546820474542454E202020444947563D3E30206D563D3E312054683D3E32D1
:2061C000552F5468204F484D20202020202020204D423730302020202020202020202020F5
:2061E000552F5468204D455353454E20202020204D4238303020202020202020202020204D
:2062000046554E4B54494F4E206E696368742020696D706C656D656E7469657274202020BB
:20622000534F4C4C3A2020202020202020202020495354203A2020202020202020202020E0
:2062400041534320202020202020202020202020465057202020202020202020202020203A
:2062600045494E47414245202020202020206D412D302E353020202E2E202035322E3030E4
:20628000414E46414E4720202020202020206D412D302E353020202E2E202035322E3030E4
:2062A000454E4445202020202020202020206D412D302E353020202E2E202035322E303013
:2062C00045494E47414245202020202020206D412D302E353030202E2E2032302E30303069
:2062E000414E46414E4720202020202020206D412D302E353030202E2E2032302E30303069
:20630000454E4445202020202020202020206D412D302E353030202E2E2032302E30303097
:206320004449474954414C202D3E205354415254414E414C4F4720202D3E2044414D532064
:20634000414E414C4F4720202D3E20535441525453504549434845522D3E2044414D53200F
:2063600053504549434845522D3E205354415254534F4E444552462E2D3E2044414D5320A2
:2063800045494E474142452020202020202020562D302E313030202E2E2031352E303030E0
:2063A000414E46414E47202020202020202020562D302E313030202E2E2031352E303030E0
:2063C000454E44452020202020202020202020562D302E313030202E2E2031352E3030300F
:2063E00045494E474142452020202020202020562D302E313030302E2E20322E3030303074
:20640000414E46414E47202020202020202020562D302E313030302E2E20322E3030303073
:20642000454E44452020202020202020202020562D302E313030302E2E20322E30303030A2
:2064400045494E47414245202020202020206D562D3130302E30302E2E203230302E3030C6
:20646000414E46414E4720202020202020206D562D3130302E30302E2E203230302E3030C6
:20648000454E4445202020202020202020206D562D3130302E30302E2E203230302E3030F5
:2064A000494E54455256414C4C452020202020202020202031202E2E2032353520202020BD
:2064C00045494E4741424520202020202020202020202020202020202020202020202020B1
:2064E000414E46414E472020202020202020202020202020202020202020202020202020B1
:20650000454E444520202020202020202020202020202020202020202020202020202020DF
:20652000424552454943482D53502E204D454E552020202020202020202020202020202016
:2065400053544550204D414E55454C4C2020202053544550204155544F4D415449534348B3
:2065600053544550202D205A45495420202020202020202031202E2E2032353520732020DA
:2065800020202020202020202020202020202020202020204F56455252414E474520202072
:2065A0004F56455252414E47452D3E53544550004920474542454E2020202020204449472D
:2065C0002020202020202020202020202020202042455245494348202D3E2032206D4120FE
:2065E00042455245494348202D3E203230206D414449474954414C202D3E20535441525497
:20660000414E414C4F4720202D3E2044414D5320414E414C4F4720202D3E205354415254AD
:2066200053504549434845522D3E2044414D532053504549434845522D3E205354415254CB
:20664000534F4E444552462E2D3E2044414D53204920474542454E202020202020444947CD
:2066600020202020202020202020202020202020566F6C74204265726569636865202020DE
:20668000546865726D6F656C656D656E746520204920474542454E20202020204D454E555D
:2066A000202020202020202020202020202020204920474542454E202020202020206D4182
:2066C000202020202020202020202020202020204920474542454E2020202054682D456CD6
:2066E0002020202020202020202020202020202042455245494348202D3E203230206D41CD
:2067000042455245494348202D3E203532206D4146652D436F6E73742020202020202020C8
:20672000202020204E692D43722D4E6920202020202020202020202050742D52682D507440
:206740004920474542454E202020203532206D4120202020202020202020202020202020BA
:206760004920474542454E202020203230206D41202020202020202020202020202020209F
:206780004155534741424520564F4E204D454D2045494E4741424520494E204D454D2020EE
:2067A0004245524549434820494E204D454D20205350454943484552204E522E2020202030
:2067C00020202020202020202020202020206D415350454943484552204E522E202020208A
:2067E00020202020202020202020202020206D415350454943484552204E522E202020206A
:20680000494E48414C54202020202020202020205354524F4D20202020204D455353454E78
:206820002020202020202020202020202020202049204D455353454E202020202020202024
:2068400020202020202020202020202020202020584D545220474542454E20202044494738
:2068600020202020202020202020202020202020584D545220202020202020204D454E5598
:2068800020202020202020202020202020202020584D5452202020202020203532206D4198
:2068A00020202020202020202020202020202020584D5452202020202020203230206D417D
:2068C00020202020202020202020202020202020552F544320474542454E20204D454E55A7
:2068E00020202020202020202020202020202020566F6C742042657265696368652020205C
:20690000546865726D6F656C656D656E746520205520474542454E20202020202020202083
:20692000202020202020202020202020202020205520474542454E202020206D566F6C74EF
